:020000040800F2
:1000000000000120191C0008AD1B0008AF1B0008F0
:10001000B11B0008B31B0008B51B0008000000005E
:10002000000000000000000000000000B1520008C5
:10003000B71B000800000000B552000891520008EC
:10004000691C0008691C0008691C0008691C00087C
:10005000691C0008691C00080D7D0008797D0008F6
:10006000E57D0008517E0008BD7E0008691C00087F
:10007000691C0008691C0008691C0008691C00084C
:10008000691C0008691C0008BD7B0008691C000889
:10009000B91B0008691C0008691C0008691C0008DD
:1000A000691C0008691C0008691C0008691C00081C
:1000B000691C0008691C0008691C0008691C00080C
:1000C000691C0008691C0008691C0008691C0008FC
:1000D000691C0008691C0008A5580008691C000874
:1000E000691C0008691C0008691C0008691C0008DC
:1000F000A9550008691C0008691C0008357C000827
:10010000691C00080000000000000000691C0008D5
:10011000691C0008691C0008691C0008691C0008AB
:10012000691C0008691C0008691C0008691C00089B
:10013000691C0008A17C000800000000000000000D
:10014000691C0008691C0008691C00080000000008
:10015000000000000000000000000000000000009F
:10016000691C0008691C0008691C0008691C00085B
:10017000691C0008691C0008691C0008691C00084B
:10018000691C0008691C0008000000000000000055
:10019000691C000810B5054C237833B9044B13B122
:1001AC000448AFF300800123237010BD80030020AE
:1001BC000000000094E7000808B5034B1BB103498D
:1001CC000348AFF3008008BD00000000840300204A
:1001DC0094E7000801F0FF01102A2BDB10F0070F49
:1001EC0008D010F8013B013A8B422DD010F0070FCC
:1001FC0042B3F6D1F0B441EA012141EA014122F0C7
:10020C0007047FF000070023F0E80256083C85EA5B
:10021C00010586EA010685FA47F5A3FA87F586FA01
:10022C0047F6A5FA87F68EB9EED1F0BC01F0FF01C6
:10023C0002F0070232B110F8013B013A83EA0103E4
:10024C0013B1F8D10020704701387047002D06BF5C
:10025C0035460338073815F0010F07D1013015F476
:10026C00807F02BF013015F4C03F0130F0BC013873
:10027C00704700BF81F0004102E000BF83F00043F3
:10028C0030B54FEA41044FEA430594EA050F08BF25
:10029C0090EA020F1FBF54EA000C55EA020C7FEAE9
:1002AC00645C7FEA655C00F0E2804FEA5454D4EB66
:1002BC005555B8BF6D420CDD2C4480EA020281EA30
:1002CC00030382EA000083EA010180EA020281EA68
:1002DC000303362D88BF30BD11F0004F4FEA0131BA
:1002EC004FF4801C4CEA113102D0404261EB4101C9
:1002FC0013F0004F4FEA03334CEA133302D052424F
:10030C0063EB430394EA050F00F0A780A4F101040A
:10031C00D5F1200E0DDB02FA0EFC22FA05F2801844
:10032C0041F1000103FA0EF2801843FA05F359412A
:10033C000EE0A5F120050EF1200E012A03FA0EFCA9
:10034C0028BF4CF0020C43FA05F3C01851EBE371D3
:10035C0001F0004507D54FF0000EDCF1000C7EEBF0
:10036C0000006EEB0101B1F5801F1BD3B1F5001F2E
:10037C000CD349085FEA30004FEA3C0C04F101044D
:10038C004FEA445212F5800F80F09A80BCF1004F76
:10039C0008BF5FEA500C50F1000041EB045141EAF8
:1003AC00050130BD5FEA4C0C404141EB010111F4F9
:1003BC00801FA4F10104E9D191F0000F04BF0146A4
:1003CC000020B1FA81F308BF2033A3F10B03B3F182
:1003DC0020020CDA0C3208DD02F1140CC2F10C0212
:1003EC0001FA0CF021FA02F10CE002F11402D8BF70
:1003FC00C2F1200C01FA02F120FA0CFCDCBF41EA3C
:10040C000C019040E41AA2BF01EB0451294330BD0A
:10041C006FEA04041F3C1CDA0C340EDC04F11404E7
:10042C00C4F1200220FA04F001FA02F340EA0300BE
:10043C0021FA04F345EA030130BDC4F10C04C4F104
:10044C00200220FA02F001FA04F340EA03002946E4
:10045C0030BD21FA04F0294630BD94F0000F83F42E
:10046C00801306BF81F480110134013D4EE77FEA11
:10047C00645C18BF7FEA655C29D094EA050F08BF5D
:10048C0090EA020F05D054EA000C04BF194610463E
:10049C0030BD91EA030F1EBF0021002030BD5FEA82
:1004AC00545C05D14000494128BF41F0004130BDAA
:1004BC0014F580043CBF01F5801130BD01F00045FE
:1004CC0045F0FE4141F470014FF0000030BD7FEA71
:1004DC00645C1ABF194610467FEA655C1CBF0B466C
:1004EC00024650EA013406BF52EA033591EA030F83
:1004FC0041F4002130BD00BF90F0000F04BF00217B
:10050C00704730B54FF4806404F132044FF00005AD
:10051C004FF0000150E700BF90F0000F04BF002126
:10052C00704730B54FF4806404F1320410F000458C
:10053C0048BF40424FF000013EE700BF42004FEA87
:10054C00E2014FEA31014FEA02701FBF12F07F4304
:10055C0093F07F4F81F06051704732F07F4208BFBB
:10056C00704793F07F4F04BF41F40021704730B5C2
:10057C004FF4607401F0004521F000411CE700BF0E
:10058C0050EA010208BF704730B54FF000050AE091
:10059C0050EA010208BF704730B511F0004502D592
:1005AC00404261EB41014FF4806404F132045FEA94
:1005BC00915C3FF4D8AE4FF003025FEADC0C18BF3D
:1005CC0003325FEADC0C18BF033202EBDC02C2F12F
:1005DC00200300FA03FC20FA02F001FA03FE40EAC1
:1005EC000E0021FA02F11444BDE600BF70B54FF0C5
:1005FC00FF0C4CF4E06C1CEA11541DBF1CEA1355A3
:10060C0094EA0C0F95EA0C0F00F0DEF82C4481EA0A
:10061C00030621EA4C5123EA4C5350EA013518BF2A
:10062C0052EA033541F4801143F4801338D0A0FB17
:10063C0002CE4FF00005E1FB02E506F00042E0FBC4
:10064C0003E54FF00006E1FB03569CF0000F18BFCA
:10065C004EF0010EA4F1FF04B6F5007F64F5407472
:10066C0004D25FEA4E0E6D4146EB060642EAC62105
:10067C0041EA55514FEAC52040EA5E504FEACE2E72
:10068C00B4F1FD0C88BFBCF5E06F1ED8BEF1004F75
:10069C0008BF5FEA500E50F1000041EB045170BDF1
:1006AC0006F0004646EA010140EA020081EA030135
:1006BC00B4EB5C04C2BFD4EB0C0541EA045170BD31
:1006CC0041F480114FF0000E013C00F3AB8014F1AB
:1006DC00360FDEBF002001F0004170BDC4F10004F4
:1006EC00203C35DA0C341BDC04F11404C4F1200575
:1006FC0000FA05F320FA04F001FA05F240EA0200D0
:10070C0001F0004221F0004110EBD37021FA04F605
:10071C0042EB06015EEA430E08BF20EAD37070BDBF
:10072C00C4F10C04C4F1200500FA04F320FA05F01E
:10073C0001FA04F240EA020001F0004110EBD37020
:10074C0041F100015EEA430E08BF20EAD37070BD90
:10075C00C4F1200500FA05F24EEA020E20FA04F369
:10076C0001FA05F243EA020321FA04F001F0004118
:10077C0021FA04F220EA020000EBD3705EEA430E89
:10078C0008BF20EAD37070BD94F0000F0FD101F0B8
:10079C000046400041EB010111F4801F08BF013CF1
:1007AC00F7D041EA060195F0000F18BF704703F02F
:1007BC000046520043EB030313F4801F08BF013DB6
:1007CC00F7D043EA0603704794EA0C0F0CEA135572
:1007DC0018BF95EA0C0F0CD050EA410618BF52EA2C
:1007EC004306D1D181EA030101F000414FF0000032
:1007FC0070BD50EA410606BF1046194652EA430640
:10080C0019D094EA0C0F02D150EA013613D195EAB3
:10081C000C0F05D152EA03361CBF104619460AD1FB
:10082C0081EA030101F0004141F0FE4141F4700105
:10083C004FF0000070BD41F0FE4141F4780170BDF5
:10084C0070B54FF0FF0C4CF4E06C1CEA11541DBF5A
:10085C001CEA135594EA0C0F95EA0C0F00F0A7F85C
:10086C00A4EB050481EA030E52EA03354FEA013189
:10087C0000F088804FEA03334FF0805545EA13139C
:10088C0043EA12634FEA022245EA111545EA106564
:10089C004FEA00260EF000419D4208BF964244F1FB
:1008AC00FD0404F5407402D25B084FEA3202B61A1A
:1008BC0065EB03055B084FEA32024FF480104FF4EE
:1008CC00002CB6EB020E75EB030E22BFB61A754662
:1008DC0040EA0C005B084FEA3202B6EB020E75EBF5
:1008EC00030E22BFB61A754640EA5C005B084FEA5D
:1008FC003202B6EB020E75EB030E22BFB61A75462A
:10090C0040EA9C005B084FEA3202B6EB020E75EB34
:10091C00030E22BFB61A754640EADC0055EA060EF5
:10092C0018D04FEA051545EA16754FEA06164FEA38
:10093C00C30343EA52734FEAC2025FEA1C1CC0D1E4
:10094C0011F4801F0BD141EA00014FF000004FF071
:10095C00004CB6E711F4801F04BF01430020B4F132
:10096C00FD0C88BFBCF5E06F3FF6AFAEB5EB030CEA
:10097C0004BFB6EB020C5FEA500C50F1000041EBE7
:10098C00045170BD0EF0004E4EEA113114EB5C04B4
:10099C00C2BFD4EB0C0541EA045170BD41F4801187
:1009AC004FF0000E013C90E645EA060E8DE60CEA8F
:1009BC00135594EA0C0F08BF95EA0C0F3FF43BAFAC
:1009CC0094EA0C0F0AD150EA01347FF434AF95EA63
:1009DC000C0F7FF425AF104619462CE795EA0C0F47
:1009EC0006D152EA03353FF4FDAE1046194622E714
:1009FC0050EA410618BF52EA43067FF4C5AE50EAEE
:100A0C0041047FF40DAF52EA43057FF4EBAE12E7DD
:100A1C004FF0FF3C06E000BF4FF0010C02E000BFBE
:100A2C004FF0010C4DF804CD4FEA410C7FEA6C5CA1
:100A3C004FEA430C18BF7FEA6C5C1BD001B050EA44
:100A4C00410C0CBF52EA430C91EA030F02BF90EA2F
:100A5C00020F0020704710F1000F91EA030F58BFEE
:100A6C00994208BF90422CBFD8176FEAE37040F050
:100A7C00010070474FEA410C7FEA6C5C02D150EAEE
:100A8C00013C07D14FEA430C7FEA6C5CD6D152EAA9
:100A9C00033CD3D05DF8040B704700BF844610466E
:100AAC0062468C461946634600E000BF01B5FFF76D
:100ABC00B7FF002848BF10F1000F01BD4DF808ED3D
:100ACC00FFF7F4FF0CBF012000205DF808FB00BF0E
:100ADC004DF808EDFFF7EAFF34BF012000205DF868
:100AEC0008FB00BF4DF808EDFFF7E0FF94BF0120B5
:100AFC0000205DF808FB00BF4DF808EDFFF7CEFFB6
:100B0C0094BF012000205DF808FB00BF4DF808EDF4
:100B1C00FFF7C4FF34BF012000205DF808FB00BFC5
:100B2C004FEA410212F5001215D211D56FF4787309
:100B3C00B3EB625212D94FEAC12343F0004343EAAC
:100B4C00505311F0004F23FA02F018BF4042704787
:100B5C004FF00000704750EA013005D111F0004011
:100B6C0008BF6FF0004070474FF00000704700BFA7
:100B7C004A0011D212F5001211D20DD56FF4787310
:100B8C00B3EB62520ED44FEAC12343F0004343EA65
:100B9C00505323FA02F070474FF00000704750EAB0
:100BAC00013002D14FF0FF3070474FF0000070471A
:100BBC004FEA4102B2F1E04324BFB3F5001CDCF173
:100BCC00FE5C0DD901F0004C4FEAC0024CEA5070AB
:100BDC00B2F1004F40EB830008BF20F001007047DA
:100BEC0011F0804F21D113F13872BCBF01F00040DD
:100BFC00704741F480114FEA5252C2F11802C2F10F
:100C0C00200C10FA0CF320FA02F018BF40F001008F
:100C1C004FEAC1234FEAD32303FA0CFC40EA0C0041
:100C2C0023FA02F34FEA4303CCE77FEA625307D17E
:100C3C0050EA01331EBF4FF0FE4040F440007047B5
:100C4C0001F0004040F0FE4040F40000704700BF4F
:100C5C00D0B500220D4B06460F46FFF7C7FCFFF739
:100C6C0087FF0446FFF748FC0022094BFFF7BEFC48
:100C7C0002460B4630463946FFF700FBFFF778FF7C
:100C8C000022234610431946D0BD00BF0000F03DA2
:100C9C000000F041054B194411F8011C435823F492
:100CAC00804323F010031A4342507047B0E700080A
:100CBC00044B194411F8011C435823F020031A4328
:100CCC0042507047B0E70008044B194411F8011C5E
:100CDC00435823F440731A4342507047B0E700085E
:100CEC00044B194411F8011C435823F440631A4374
:100CFC0042507047B0E70008044B194411F8011C2E
:100D0C00435823F440531A4342507047B0E700084D
:100D1C00054B5A6902435A615B6982B018400190D5
:100D2C00019B02B0704700BF00100240054BDA690E
:100D3C000243DA61DB6982B018400190019B02B07A
:100D4C00704700BF0010024010B54FF4407393FA87
:100D5C00A3F31F24036B8C40C2F3846223EA0403C5
:100D6C0002FA01F11943016310BD0000044B194450
:100D7C0011F8012C835843F080038350704700BF57
:100D8C00B0E70008044B194411F8012C835823F0E8
:100D9C0040038350704700BFB0E700084FF0A042FB
:100DAC00936823F040539360936823F0104323F02F
:100DBC003F0343F08053936070474FF4401393FA12
:100DCC00A3F3036A03F0F02343F07F6343F470232F
:100DDC00036270474FF4401393FAA3F3C368044AB9
:100DEC0023F0FB4323F480030A401343C360704792
:100DFC000000C07D30B54FF0007393FAA3F301F0FF
:100E0C000072B3FA83F322FA03F314304FF0F87440
:100E1C0050F8232094FAA4F5B5FA85F52140E94061
:100E2C00072505FA01F122EA010194FAA4F440F82D
:100E3C00231030BD324B1A6822F0070242F0020236
:100E4C0010B51A601A6802F00702022AFAD12D4C6A
:100E5C00236843F48033236023689A03FCD56368CA
:100E6C0023F4761343F4E8136360E36A23F00F036F
:100E7C00E362236843F08073236023689B01FCD5F5
:100E8C00636823F0F0036360636823F4E06343F466
:100E9C0080636360636823F460536360636823F06A
:100EAC00030343F002036360636803F00C03082B35
:100EBC00FAD1154803F01AF80F2000F0D1FE236B7D
:100ECC0023F440332363236B43F400732363236BBA
:100EDC0043F080732363236B43F0007323636368D5
:100EEC0023F480036360E36A23F4F87343F48073A0
:100EFC00E362E36A23F4785343F40053E36210BDD6
:100F0C00002002400010024000A24A042DE9F04FDC
:100F1C00A1B000F0C9FE0024FFF78CFF0DF1580BB7
:100F2C004FF400201694CBE90144FFF7F1FE4FF487
:100F3C008000FFF7EDFE4FF40030FFF7E9FE4FF4B1
:100F4C008020FFF7E5FEE449F0234A6993FAA3F306
:100F5C000220B3FA83F322F0F00200FA03F31343F6
:100F6C00DE484B61C2684FF4005595FAA5F3B3FA0D
:100F7C0083F303265B0006FA03F322EA030395FAD4
:100F8C00A5F2C360026895FAA5F3B3FA83F35B008C
:100F9C0006FA03F322EA030395FAA5F24FF00108CF
:100FAC0003604FF0020258468DF86220CDE91654CA
:100FBC008DF860808DF8614001F016FD4046FFF71A
:100FCC00A7FE0220FFF7A4FE214618220EA8CDE9A9
:100FDC00034405940BF06AFE2146102208A80BF07E
:100FEC0065FE1822214658460BF060FE4FF08050EB
:100FFC00FFF78EFEBA4FDFF8FCA2DFF8FC924FF43D
:10100C000020FFF785FE5946B4481A94CDE91686A0
:10101C0001F084FD384622464146FFF73BFE41462F
:10102C004FF44052FFF768FE20224146FFF740FE86
:10103C004146FFF7A7FE4146FFF798FE41464FF4A5
:10104C008072FFF741FE41464FF48062FFF748FE85
:10105C0003AA11464FF0A040CDE90344059401F0DA
:10106C005FFC4FF4A062CDE90E284FF4805213922E
:10107C000EAA11464FF0A0404FF0A0451296CDE9B4
:10108C00104401F063FCFFF789FE08AA1146504694
:10109C00CDE9084401F01AFCEB68924923F4406353
:1010AC0043F480632846EB60FFF794FEFFF785FE60
:1010BC006B688D4A43F080036B600621FFF744FE9A
:1010CC008949FFF797FED5F8B03023F48023C5F893
:1010DC00B030DAF8083023F0E07343F48003CAF838
:1010EC0008304A4628460C21FFF72EFE4946FFF7EA
:1010FC0081FED5F8B030DFF8049223F04003C5F838
:10110C00B030214618220EA8CDE908440A940BF001
:10111C00CDFD2146182258460BF0C8FD4FF08050EB
:10112C00FFF7F6FD05F170454FF40020FFF7F0FDD9
:10113C0005F501350222594668481A94CDE9162660
:10114C0001F0ECFC284622463146FFF7A3FD314660
:10115C004FF44052FFF7D0FD20223146FFF7A8FD97
:10116C003146FFF70FFE3146FFF700FE31464FF4D4
:10117C008072FFF7A9FD31464FF48062FFF7B0FD96
:10118C0055490B6808AA43F4807348460B60114616
:10119C00CDE908440A9401F0C3FB4FF4A062CDE9F9
:1011AC000E284FF4805213920EAA484611461296FE
:1011BC00CDE9104401F0CAFBFFF7F0FDD9F80C3073
:1011CC004A4923F4406343F480634846C9F80C3021
:1011DC00FFF700FEFFF7F1FDD9F80430424A43F067
:1011EC008003C9F804300621FFF7AEFD3E49FFF736
:1011FC0001FED9F8B03023F48023C9F8B030DAF806
:10120C00083023F0E07343F48003CAF80830DFF8A9
:10121C00F0A0484652460C21FFF796FD5146FFF7C9
:10122C00E9FDD9F8B030DFF8DCA023F08003C9F871
:10123C00B030214618220EA8CDE9034405940BF0DA
:10124C0035FD2146102208A80BF030FD182221464E
:10125C0058460BF02BFD4FF00050FFF759FD4FF4A3
:10126C008020FFF755FD594621481A94CDE9168682
:10127C0001F054FC284622460521FFF70BFD4FF4E4
:10128C0040520521FFF738FD20220521FFF710FD04
:10129C000521FFF777FD0521FFF768FD4FF48072FC
:1012AC000521FFF711FD4FF48062052109F5407906
:1012BC00FFF716FD03AA48461146CDE903440594F1
:1012CC0001F02EFB4FF4805213920EAA4FF4D86308
:1012DC00484611460E9317E00000014000080048F4
:1012EC00000002400000C4C8000084CB8000C01C79
:1012FC000004004800030050400020190001005079
:10130C008000501D000700500193CDE91146CDE936
:10131C000F8401F01BFBFFF741FD08AA1146504654
:10132C00CDE9084401F0D2FAD9F80C20E84922F4AE
:10133C00406242F480624846C9F80C20FFF74AFD2F
:10134C00FFF73BFDD9F8042042F08002C9F80420D5
:10135C000621E04AFFF7F8FCDE49FFF74BFDD9F810
:10136C00B02022F48022C9F8B020DAF8082022F04C
:10137C00E07242F480024846CAF808200C21D64A92
:10138C00FFF7E2FCD449FFF735FDD9F8B02022F481
:10139C008052C9F8B020214618220EA8CDE9084485
:1013AC000A940BF083FC2146182258460BF07EFC65
:1013BC004FF00050FFF7ACFC4FF48020FFF7A8FC77
:1013CC004FF480425946C5481A94CDE9162601F0CF
:1013DC00A5FB284622460421FFF75CFC4FF4405243
:1013EC000421FFF789FC20220421FFF761FC042172
:1013FC00FFF7C8FC0421FFF7B9FC4FF480720421FD
:10140C00FFF762FC4FF480620421FFF769FCB44BD8
:10141C001A6809F5807942F480721A6008A9484666
:10142C00CDE908440A9401F07BFA019B12964FF423
:10143C0080520EA948461392CDE90E38CDE91044DE
:10144C0001F084FAFFF7AAFCD9F80C30A54923F473
:10145C00406343F480634846C9F80C30FFF7BAFC8C
:10146C00FFF7ABFCD9F804309A4A43F08003C9F873
:10147C0004300621FFF768FC9649FFF7BBFCD9F84E
:10148C00B030984A23F48023C9F8B030DAF8083029
:10149C0023F0E07343F48003CAF8083048460C216B
:1014AC00FFF752FC8F49DFF840A2FFF7A3FCD9F8F5
:1014BC00B03023F01003C9F8B030214614220EA826
:1014CC000BF0F4FB2146202258460BF0EFFB0220D8
:1014DC00FFF72CFC384622460621FFF7DBFB4FF4C6
:1014EC0040520621FFF708FC20220621FFF7E0FB03
:1014FC000621FFF747FC0621DFF8F091FFF736FCD9
:10150C004FF480720621FFF7DFFB4FF48062062157
:10151C00FFF7E6FB4FF47A7248230EA94846ADF864
:10152C003820CDE910340F9401F0A4FCD9F8003028
:10153C0043F08003C9F80030D9F8083023F4A03305
:10154C0023F00703C9F808305A4641464846CDE90E
:10155C001644CDE918441A9401F0F4FCD9F818306B
:10156C0023F00403C9F81830D9F8043023F07003C1
:10157C0043F02003C9F80430D9F8083023F0800375
:10158C00C9F808302146142208A80BF08FFB21461D
:10159C00202258460BF08AFB182221460EA80BF08D
:1015AC0085FB40464FF08049FFF7C0FB4FF47A7142
:1015BC00CDE90A144FF0804008A9ADF820400994F9
:1015CC0001F058FCD9F8003023F08003C9F8003042
:1015DC00D9F8083023F4A03323F00703C9F80830F6
:1015EC00DAF8043043F008034846CAF804305A4687
:1015FC0060234FF4807116930193CDE91744CDE924
:10160C00194401F09FFCDAF8042042F00402CAF8F5
:10161C000420D9F8042022F0700242F01002C9F81C
:10162C000420D9F8082042F08002C9F808204FF4B1
:10163C008020FFF76DFB4FF480610E910221CDE904
:10164C000F162648CDF84C800EA9CDE9114401F0B7
:10165C0065FA2146142208A80BF028FB214620220B
:10166C0058460BF023FB214618220EA80BF01EFB4C
:10167C00042009F50069FFF759FB4FF47A72ADF8B5
:10168C00202008A949224846CDE90A24099401F0F2
:10169C00F1FBD9F80020019B42F08002C9F8002030
:1016AC00D9F8082022F4A03222F00702C9F8082049
:1016BC00DAF804281A9442F00802CAF804284FF405
:1016CC0080715A464846CDE91634CDE918440FE0EE
:1016DC000010C030000084CB0010603200040048C1
:1016EC00000001401000C010180000400004004031
:1016FC0001F028FCDAF8043843F00403CAF8043883
:10170C00D9F8083023F0700343F01003C9F80830FF
:10171C00D9F8083023F4803323F0070343F0060391
:10172C00C9F80830D9F80C3023F04003C9F80C3054
:10173C00D9F80C3023F48043C9F80C30D9F80430B4
:10174C0023F0700343F02003C9F80430D9F80830B3
:10175C0023F080030DF1380AC9F808304FF48020CB
:10176C004FF00209FFF7D4FA4FF480735146D64874
:10177C000E930193CDE90F96CDE91144CDF84C9021
:10178C0001F0CCF9D14B1A6842F480221A60214640
:10179C00102250460BF08AFA2146182258460BF0BC
:1017AC0085FA4FF00050FFF7C1FA4FF40030FFF705
:1017BC00AFFA302259464FF09040CDE916261A94D4
:1017CC0001F0ACF9384631461022FFF763FA314686
:1017DC004FF40052FFF790FA20223146FFF768FAD7
:1017EC003146FFF7CFFA3146FFF7C0FA31464FF4D6
:1017FC000072FFF769FA31464FF40062FFF770FA96
:10180C00B24B1A6842F400521A6004211022FFF7FE
:10181C0041FA4FF400520421FFF76EFA2022042102
:10182C00FFF746FA0421FFF7ADFA0421FFF79EFA01
:10183C004FF400720421FFF747FA4FF48062042141
:10184C00FFF74EFAA14BA2491A68A7F5C63742F426
:10185C0080421A6038465246CDE90E44119401F08C
:10186C0099F83A689B4942F0040210233A603846D2
:10187C0052460E9301F08EF83A6842F480223A6098
:10188C0014273A46214603A80BF010FA21462022D1
:10189C0050460BF00BFA2146282258460BF006FA5C
:1018AC002146182208A80BF001FA8B4A916941F4E1
:1018BC0000519161926902F4005202924FF400209F
:1018CC00029AFFF725FA4FF40072CDE9082908A90E
:1018DC00042282480D92CDE90A640C9401F01EF9A1
:1018EC00284622464946FFF7D5F949464FF480521F
:1018FC00FFF702FA22464946FFF7DAF94946FFF7A5
:10190C0041FA4946FFF732FA019B49461A46FFF75E
:10191C00DBF949464FF48062FFF7E2F92246414673
:10192C00FFF7B8F941464FF48052FFF7E5F922462C
:10193C004146FFF7BDF94146FFF724FA4146FFF750
:10194C0015FA019B41461A46A5F55045FFF7BCF91F
:10195C004FF480624146FFF7C3F94FF6FF7603A9B7
:10196C002846ADF80C400494CDE90564079401F0C9
:10197C0081FA2B6823F080032B60AB6823F4A0332F
:10198C0023F00703AB60524610212846CDE90E44E4
:10199C00CDE91044CDE91244CDE9144401F0D2FA5A
:1019AC00AB6923F48063AB616B6823F070036B60ED
:1019BC006B6823F470036B60AB6823F08003AB603F
:1019CC00474B5A6822F0030242EA09025A605A68ED
:1019DC0022F00C025A605A6822F0F0025A602A6A0D
:1019EC0022F420622A625A6822F4407242F4807215
:1019FC005A605A6822F440625A605A6822F4704263
:101A0C005A602B6A23F420432B624FF40053CDE928
:101A1C001A3459464FF000732846CDE916441894F1
:101A2C008DF86440ADF866401C94CDE91D341F94CC
:101A3C0001F022FC3A4621465846A5F592350BF0AA
:101A4C0035F91020FFF772F959462846ADF8584081
:101A5C00CDE9174601F00EFA2B6823F080032B60BA
:101A6C006B6823F0700343F020036B60AB6823F0CA
:101A7C008003AB6021461C2258460BF017F9182244
:101A8C00214650460BF012F94FF40030FFF74EF997
:101A9C004FF40030FFF73CF90C25072351464FF06B
:101AAC009040CDE90E591393CDE91044129401F0F6
:101ABC0035F8CDE91A540B4D1C9459464FF4E133CB
:101ACC002846CDE916340FE0000400480000014020
:101ADC0001001002120043150010024000080048DB
:101AEC001834014000440040CDE9184401F008FCD2
:101AFC00AB6823F48063AB606B6823F490436B603A
:101B0C00AB6823F02A03AB602B6843EA08032B6015
:101B1C0002F002FF3A4621465846A5F540550BF017
:101B2C00C5F82020FFF702F959462846ADF8584071
:101B3C00CDE9174601F09EF92B6823F080032B604A
:101B4C006B6823F0700343F020036B60AB6823F0E9
:101B5C008003AB6003F09CFA204621B0BDE8F08F07
:101B6C00704700000D4B9A6942F001029A619A6924
:101B7C0082B002F001020092009ADA6942F08052BF
:101B8C00DA61DB6903F080530193019B00220F2182
:101B9C006FF0010002B000F0ABB800BF00100240C3
:101BAC007047FEE7FEE7FEE7FEE77047014800F0EE
:101BBC007DB900BFC40E00200B4B196810B502464E
:101BCC0009B90A491960186809490A4C0244091BE9
:101BDC008A4206D90AF0F8FF0C2303604FF0FF305D
:101BEC0010BD1A60FCE700BF9C03002050F90020D8
:101BFC000000012000040000034AD2F8883043F4AE
:101C0C007003C2F88830704700ED00E0DFF834D084
:101C1C000D480E490E4A002302E0D458C450043338
:101C2C00C4188C42F9D30B4A0B4C002301E013600F
:101C3C000432A242FBD3FFF7DFFF0AF0CBFFFFF722
:101C4C0065F9FEE700000120000000207C03002065
:101C5C0010F50008800300204CF90020FEE700007E
:101C6C0038B50E4A0E4B054618784FF47A73B3FB11
:101C7C00F0F31068B0FBF3F000F07CF8044658B9B0
:101C8C000F2D09D8024629464FF0FF3000F030F8EE
:101C9C00044B20461D6038BD0120FCE700000020ED
:101CAC000400002008000020074A08B5136843F020
:101CBC0010031360032000F009F80F20FFF7D0FF8A
:101CCC00FFF750FF002008BD00200240074AD368F0
:101CDC0023F4E0631B041B0C43F0BF63000243F4CA
:101CEC00003300F4E0600343D360704700ED00E084
:101CFC00174B70B5DC68C4F30224C4F10705042D3E
:101D0C0004F1040328BF04254FF0FF36062B06FA16
:101D1C0005F38CBF033C002421EA0303A34006FA1D
:101D2C0004F422EA0404002843EA0403A8BF00F1E7
:101D3C0060404FEA0313BCBF00F00F00054ADBB252
:101D4C00AABF00F56140135480F8003370BD00BF8A
:101D5C0000ED00E014ED00E0002808DB420901234F
:101D6C0000F01F0003FA00F0014B43F8220070470B
:101D7C0000E100E00138B0F1807F0AD2064B074A3F
:101D8C005860F02182F823100020072298601A6016
:101D9C0070470120704700BF10E000E000ED00E04C
:101DAC00F0B5044687B0002851D090F8A93203F062
:101DBC00FF021BB980F8A82202F000FF032384F86D
:101DCC00A932206801F00DFB002365682826012745
:101DDC001846D9B28D4203F101021BD800232826E4
:101DEC001946D8B2854203F1010321D804F110063B
:101DFC000FCE6D460FC533682B60231D0ECB2068AC
:101E0C0001F0F9FA0020012384F8240084F8A932A7
:101E1C0007B0F0BD06FB0143C3E90E0083F829703F
:101E2C0083F82810D98683F82B0018641346D0E762
:101E3C0006FB004282F8691182F8680182F86B1186
:101E4C00C2F87811C2F87C11C2F88011C9E70120E0
:101E5C00DEE738B590F8A832012B044610D00125E6
:101E6C0080F8A852006801F0B3FA2946204602F027
:101E7C00D8FF206801F043FD002084F8A80238BD8B
:101E8C000220FCE790F8A822012A10B504460BD0DA
:101E9C00012280F8A82284F82410006801F029FDA2
:101EAC00002084F8A80210BD0220FCE72DE9F84FB1
:101EBC000446006801F025FD020409D5DFF8D4972B
:101ECC00DFF8D4872068B0F844301F0400F191800B
:101EDC00206801F016FD43050FD52268B2F8443096
:101EEC0023F480631B041B0C2046A2F8443002F040
:101EFC00A0FE00212046FFF7C5FF206801F001FD80
:101F0C00460408D52268B2F8443023F480431B04FD
:101F1C001B0CA2F84430206801F0F3FC850408D5B2
:101F2C002268B2F8443023F400531B041B0CA2F8B3
:101F3C004430206801F0E5FCC0041CD52268B2F8DE
:101F4C00403023F004031B041B0CA2F84030B2F801
:101F5C00403023F008031B041B0CA2F84030204631
:101F6C0002F08AFE2268B2F8443023F480531B043A
:101F7C001B0CA2F84430206801F0C3FC010517D5F6
:101F8C002268B2F8403043F00803A2F84030B2F8AF
:101F9C00443023F400631B041B0CA2F84430B2F849
:101FAC00403043F00403A2F84030204602F054FEC7
:101FBC00206801F0A6FC82050BD52268B2F84430EB
:101FCC0023F400731B041B0CA2F84430204602F0CF
:101FDC002CFE206801F095FCC30508D52268B2F8E8
:101FEC00443023F480731B041B0CA2F84430BDE86E
:101FFC00F88FB0F8441089B211F00F0640F0AE80A3
:10200C0011F01001038829D109EA030343F40043BA
:10201C000380B0F8502094F8283000F202401044AD
:10202C00E26B30F83330C3F3090363641344E363A6
:10203C00204602F0F2FD94F82430002B3FF442AF1E
:10204C00226C002A7FF43EAF94F82430216843F0D0
:10205C008003A1F84C3084F8242033E79BB213F4AE
:10206C0000651FD0B0F8501094F8682100F20643B8
:10207C000B4404F52C7133F83230B4F86E21C3F3F1
:10208C000903C4F8843101F007FF2268138823F098
:10209C0070031B051B0D43F080031380204602F0D8
:1020AC00ADFD0FE71F047FF50DAF038823F0700320
:1020BC001B051B0D43F080030380B0F8501094F8FF
:1020CC00682100F206430B4433F83230C3F30903A2
:1020DC00C4F884318BB1D4F87C1171B1B4F86E2191
:1020EC0001F0DAFED4F87C31D4F884211344C4F81E
:1020FC007C312946204602F087FD2168D4F87851BE
:10210C00B1F8503001F206409BB2BDB9C25A22F46C
:10211C00F8421204120CC252C25A48EA020292B29B
:10212C00C2520B8823F4804323F0700383F4405392
:10213C0043F4004343F080030B80C3E63E2D05D8E7
:10214C006A08EE0748BF01329202E8E76A09ED0619
:10215C0008BF02F1FF3248EA8222E0E70FFA86FA62
:10216C0030F82A70BFB23A0440F1F08030F82A30CF
:10217C0023F070031B051B0D43F08003282120F86E
:10218C002A3001FB064191F87431ABB9B0F85050CC
:10219C0091F8682100F206432B4433F83250C5F312
:1021AC000905002D00F0B680B1F86E212B46D1F850
:1021BC007C1101F071FEADE091F86B3191F8682162
:1021CC00022B40F0898017F4804E4FEAC205D1F8FB
:1021DC00803107F0400C3ED0B0F850E07544054417
:1021EC00B5F80254C5F309059D4294BF5B1B00234F
:1021FC00C1F88031282303FB0643D3F880316BB937
:10220C0030F8223023F4804323F0700383F400531E
:10221C0043F4004343F0800320F82230BCF1000F5C
:10222C0010D0282303FB064393F8682130F82230A2
:10223C0023F0F0031B051B0D43F4004343F0C003D4
:10224C0020F82230002D65D0282101FB06412B46B9
:10225C00B1F87021ABE7B0F850B05D440544B5F867
:10226C000654C5F309059D429CBF5B1BC1F8803128
:10227C004FF0280303FB064388BFC1F880E1D3F875
:10228C0080316BB930F8223023F4804323F0700393
:10229C0083F4005343F4004343F0800320F82230CE
:1022AC00BCF1000F10D1282303FB064393F86821DF
:1022BC0030F8223023F0F0031B051B0D43F40043D0
:1022CC0043F0C00320F8223025B3282101FB06413E
:1022DC002B46B1F872216AE730F8223023F0F00374
:1022EC001B051B0D43F4004343F0C00320F82230C0
:1022FC0091F8682113B230F82330B0F850505B04D9
:10230C0059D500F202432B4433F83250C5F309057A
:10231C00002D9CD1282101FB0643D3F884212A44AB
:10232C00C3F88421D3F87C212A44C3F87C21D3F848
:10233C0080211AB1D3F878319D4246D2282303FB71
:10234C000643204693F8681102F05EFC39067FF5CF
:10235C00B9AD206830F82A3009EA030343F400438E
:10236C0020F82A300AEB8A0A04EBCA0595F82B30C0
:10237C0095F82810022B01D1FA053AD4B0F850E0A8
:10238C0000F202434FF0280C73440CFB064733F861
:10239C0031303A6CC3F309039A428CBFD21A002233
:1023AC003A640CFB06473A6CBAB995F828102046EB
:1023BC0002F033FC86E500F206432B4433F832502E
:1023CC00C5F30905002DA5D082E701FB064101F5F7
:1023DC00B471206801F0A8FAB8E7FA6B1A44FA63F2
:1023EC007A6C06FB0CC113447B64214401F09CFA0B
:1023FC0068E54FF0280E0EFB064E17F0400B0FFA57
:10240C0081FADEF84030B0F850C007F4804700F095
:10241C009F8000F202429444BFB23CF83AC0CCF325
:10242C00090C9C4534BFA3EB0C030023CEF84030C1
:10243C00282303FB06431B6CABB9204602F0EDFBD3
:10244C00002F00F0A28095F82810226832F8213075
:10245C0023F0F0031B051B0D43F4404343F08003B2
:10246C0022F8213091E05FB130F82A3023F0F003EC
:10247C001B051B0D43F4404343F0800320F82A3026
:10248C00282707FB064797F84C30012B7DD17B6C36
:10249C00F96BD7F848E063447B64BB6B61449E45A1
:1024AC00F96324D3AEEB030EC7F848E095F829C0C6
:1024BC009FB2BCF1000F3FD1B0F850C095F828E0A6
:1024CC00624402EBCE02FBB9138823F4F8431B04DD
:1024DC001B0C1380138848EA03039BB21380282338
:1024EC0003FB06463B46328E01F00EFA4DE0BEF180
:1024FC00000F03D187F84CE06346D7E7002387F839
:10250C004C30BB647346D1E73E2B0CD84FEA530CCE
:10251C00DB0748BF0CF1010C4FEA8C2C1FFA8CFC2A
:10252C00A2F800C0DBE74FEA531CDB0608BF0CF136
:10253C00FF3C48EA8C2CF1E7BCF1010FCFD1B0F88D
:10254C0050C095F82830624402EBC3021780C6E7EE
:10255C0000F206429444BFB23CF83AC0CCF3090CEA
:10256C009C459CBFA3EB0C03CEF840304FF02803E6
:10257C0003FB064388BFCEF840B01B6CBBB92046AA
:10258C0002F04BFB002F3FF45EAF95F82810226849
:10259C0032F8213023F4E04323F0400383F030037E
:1025AC0043F4004343F0800322F821308AE45FB9FE
:1025BC0030F82A3023F0F0031B051B0D43F4404385
:1025CC0043F0800320F82A30282707FB064797F8AA
:1025DC004C30012BD9D17B6CF96BD7F848E06344B4
:1025EC007B64BB6B61449E45F96322D3AEEB030E57
:1025FC00C7F848E095F829C09FB2BCF1000F3DD157
:10260C00B0F850C095F828E0624402EBCE02EBB96A
:10261C00138823F4F8431B041B0C1380138848EA1B
:10262C0003039BB21380282303FB06463B46728EA2
:10263C005AE7BEF1000F03D187F84CE06346D9E7A7
:10264C000023BB6487F84C307346D3E73E2B0CD881
:10265C004FEA530CDB0748BF0CF1010C4FEA8C2CF2
:10266C001FFA8CFCA2F800C0DDE74FEA531CDB0616
:10267C0008BF0CF1FF3C48EA8C2CF1E7BCF1010FD0
:10268C00D1D1B0F850C095F82830624402EBC302A7
:10269C001780C8E70F8FFFFF0080FFFF11F0800F3E
:1026AC0070B5044601F007054FF028001CD005FB5F
:1026BC0000002118012048700A614A780D70CB7017
:1026CC0002B1CD81022B04BF00230B7194F8A83208
:1026DC00012B13D0012384F8A832206800F0A0FE4F
:1026EC00002084F8A80270BD00FB054100FB0540EA
:1026FC00002601F5B47180F86961DDE70220F2E78C
:10270C0011F0800F10B501F0070204464FF02803BA
:10271C0013D002FB0333C11801234B700A7094F8D9
:10272C00A832012B13D0012384F8A832206800F0C2
:10273C00BBFF002084F8A80210BD03FB020103FBC1
:10274C000203002001F5B47183F86901E6E7022069
:10275C00F2E770B501F00701282606FB01040025FD
:10276C0084F86811C4F87C21C4F88031C4F8845111
:10277C0084F8695104F5B471006801F0D5F8284665
:10278C0070BD282301F0070103FB0101D1F884017E
:10279C00704770B501F00701282404FB0105C5E959
:1027AC000F23AB6401EB810300EBC3030122002672
:1027BC0001FB044485F84C206E6483F8281083F8E0
:1027CC0029200119006801F0AFF8304670BD10B532
:1027DC00044601F007006368984224D811F0800F7A
:1027EC004FF0280215D000FB0221631801225A7009
:1027FC0001229A70187094F8A812914215D084F89E
:10280C00A8221946206801F015F8002084F8A802C7
:10281C0010BD02FB014302FB0141002203F5B4731E
:10282C0081F86921E4E70120F2E70220F0E738B5EE
:10283C00436801F00F029A42044626D811F0800F2B
:10284C0001F007024FF0280315D002FB0333C11827
:10285C0001234B7000258D700A7094F8A832012B5F
:10286C0015D0012384F8A832206800F0FFFF84F80B
:10287C00A852284638BD03FB020103FB02030020CB
:10288C0001F5B47183F86901E4E70120F2E7022055
:10289C00F0E711F0800F18BF01F0070110B54FF0F1
:1028AC00280415BF01FB044104FB0100401800F58E
:1028BC00B47099B21AB90273C180002010BD012204
:1028CC001B0C027301814381F7E70000114B984206
:1028DC000CBF4FF0A043104B9A6803F5807330B5D2
:1028EC009B681343DB4303F001038BB1D1E9004335
:1028FC000A4D82682A4043B1234313438A68134329
:10290C00CA6813438360002030BD22438260FAE71B
:10291C000120F9E70003005000040050E030FCFFF8
:10292C00836813F0010330B50DD1D1E90025C468DB
:10293C0089682A430A4324F4804121F038010A4370
:10294C00C260184630BD0120FCE700008368DB073D
:10295C00F0B51BD4D1E90032D1E903474E690C4DD7
:10296C00234372B1C46889683B4333432C402343EF
:10297C000B43C360036B23F00F031343036300206B
:10298C00F0BDC1683B4333432940F1E70120F7E731
:10299C003CC0F0FF70B501F010010568012303FA8B
:1029AC0001F4AC431DD0D2E90043D6687BB123437C
:1029BC00926805683343134340F6FA748B4004FA6B
:1029CC0001F125EA010119430160002070BD026884
:1029DC00FA258D40344322EA050204FA01F1114331
:1029EC00F2E71846F2E700000146D0E90032007A1F
:1029FC0030B500287DD0002B44D0487A012827D050
:102A0C0003D302282DD0012008E04348446824EA6F
:102A1C000304446004681C43046000208C7A6CB18D
:102A2C00022C22D0032C29D0012C2DD13A4CE56854
:102A3C0025EA0305E560A5682B43A360002A3DD079
:102A4C004B7A012B3BD021D3022B41D0012025E026
:102A5C003148046824EA0304046044681C4344605D
:102A6C00DBE72D4804681C43F6E72B4CA56825EAE8
:102A7C000305A560E5682B43E360DFE7264CA568FA
:102A8C001D43F6E71846D9E70120D7E7224B5C6ACD
:102A9C0024EA02045C621C6A14431C628B7A6BB1DC
:102AAC00022B19D0032B20D0012B32D11A4BD96A0F
:102ABC0021EA0201D962996A0A439A6230BD164B27
:102ACC001C6A24EA02041C625C6A14435C62E5E73B
:102ADC00114B1C6A1443F6E70F4B996A21EA020169
:102AEC009962D96A0A43DA62E8E70B4B996A114397
:102AFC00F6E709490C68DB431C400C604C6823402A
:102B0C004B600B6AD24313400B624B6A1A404A6209
:102B1C00D4E70120D2E700BF000401402DE9F04FBB
:102B2C0002460D6895FAA5F44FF0010EB4FA84F440
:102B3C0003264FF00F0C6FEA050835FA04F001D1AB
:102B4C00BDE8F08F0EFA04F32B406CD04868471E9A
:102B5C00012F1ED8976893FAA3F9B9FA89F993FA59
:102B6C00A3FA4FEA490906FA09F927EA0909BAFA58
:102B7C008AFA8F684FEA4A0A07FA0AF749EA0707FE
:102B8C009760576808EA0709CF686F4349EA070757
:102B9C005760D76893FAA3F9B9FA89F993FAA3FAAB
:102BAC004FEA490906FA09F927EA0909BAFA8AFA31
:102BBC000F694FEA4A0A07FA0AF749EA0707022897
:102BCC00D7601DD193FAA3F7B7FA87F7072FD1F87F
:102BDC0014A02ADCD2F820B093FAA3F7B7FA87F73F
:102BEC0093FAA3F9B9FA89F9BF000CFA07F74FEA7F
:102BFC0089092BEA07070AFA09FA47EA0A07176252
:102C0C00D2F8009093FAA3F7B7FA87F793FAA3F3E5
:102C1C00B3FA83F37F0006FA07F75B0029EA07078C
:102C2C00984007431760013487E7D2F824B04FEA85
:102C3C00132999FAA9F7B7FA87F799FAA9F9B9FA02
:102C4C0089F9BF000CFA07F74FEA89092BEA070745
:102C5C000AFA09FA47EA0A075762D1E7024B1868E1
:102C6C00C0F34000704700BF00100240034B044A01
:102C7C005B68C3F30313D35CD84070470010024069
:102C8C00B7E70008034B044A5B68C3F30223D35C29
:102C9C00D840704700100240C7E70008034B044AB5
:102CAC005B68C3F3C223D35CD8407047001002406A
:102CBC00C7E700080A4B5A68D86A5B684FF4701271
:102CCC0092FAA2F2B2FA82F203F47013D3400233F6
:102CDC0000F00F0003490130B1FBF0F0584370478E
:102CEC000010024000127A00044B5B6803F00C03E6
:102CFC00082B01D1FFF7DEBF0148704700100240DE
:102D0C0000127A0008B5024620BB2E490B6B03F06B
:102D1C000303022B0FD0032B05D0012B12D1BDE8DE
:102D2C000840FFF7E1BFFFF799FF274B002818BFBA
:102D3C001A4610462CE00B6A13F0020F18BF4FF422
:102D4C000042F6E7FFF7D0FFFFF790FFBDE8084021
:102D5C00FFF7A4BF10281CD11A4A1C49136B03F4AB
:102D6C00403343F080538B4224D0194A93420BD00A
:102D7C00A2F500329342D2D0FFF7B6FFFFF776FFF1
:102D8C00BDE80840FFF77EBFFFF768FFC0B9002021
:102D9C0008BD1228FBD10B4A0E49136B03F44023D8
:102DAC0043F090538B4205D00B4A9342ECD0A2F5E2
:102DBC000022DFE7136A9B07E9D54FF40040E7E7F1
:102DCC000148E5E70010024000127A0000000210F2
:102DDC00000003100000081200000C12B0F5401F98
:102DEC0008B520D11D4A1E49136B03F4401343F45C
:102DFC0040538B4229D01B4A934207D0A2F50012B4
:102E0C00934208D1BDE80840FFF76EBFFFF726FFDD
:102E1C0008BB002008BDFFF767FFFFF727FFBDE8E1
:102E2C000840FFF72FBFB0F5400FF2D10B4A0E4907
:102E3C00136B03F4400343F440438B4205D00B4A1D
:102E4C009342E3D0A2F50002DAE7136A9B07E0D5C0
:102E5C004FF40040DEE70648DCE700BF00100240FC
:102E6C00003020000030300000C0800000C0C000E6
:102E7C0000127A00314A0368904212D0B0F1804FB0
:102E8C000FD0A2F5943290420BD002F580629042A2
:102E9C0007D002F59632904203D002F5E0529042F0
:102EAC0015D14A6823F070031343244A90421DD075
:102EBC00B0F1804F1AD0A2F59432904216D002F5A0
:102ECC008062904212D002F5963290420ED01C4A8B
:102EDC0090420BD002F58062904207D002F58062DE
:102EEC00904203D002F50062904203D1CA6823F4E9
:102EFC004073134303608B68C3620B8883620F4B70
:102F0C00984213D003F5006398420FD003F5406349
:102F1C0098420BD003F58063984207D003F5806389
:102F2C00984203D003F50063984201D10B69036307
:102F3C00436943F00103436100207047002C0140BA
:102F4C0000400140B1F5807F30B500F0DA8006D842
:102F5C00012948D0102900F08C80012088E0B1F5BF
:102F6C00803F00F01581B1F5801F00F04A81B1F56A
:102F7C00805FF2D1036A156823F480530362036AFD
:102F8C004468C16921F0807121F4E64141EA0521D0
:102F9C00156923F4005343EA0533556823F4805331
:102FAC0043EA0533B34DA84213D005F50065A8429A
:102FBC000FD005F54065A8420BD005F58065A842F9
:102FCC0007D005F58065A84203D005F50065A84239
:102FDC0004D1956924F4804444EA8514D268446091
:102FEC00C161026442E0036A156823F001030362C5
:102FFC00036A4168846924F4803424F073042C43FC
:10300C00156923F002032B43556823F001032B436E
:10301C00984DA84213D005F50065A8420FD005F5D0
:10302C004065A8420BD005F58065A84207D005F590
:10303C008065A84203D005F50065A84212D15569F8
:10304C0023F0080343EA8503956823F0040343EA5D
:10305C008503956921F480712943D56921F40071A8
:10306C0041EA4501D26841608461426303620020F9
:10307C0030BD036A156823F010030362036A4168CC
:10308C00846924F0807424F4E64444EA0524156928
:10309C0023F0200343EA0513556823F0100343EA99
:1030AC000513744DA84213D005F50065A8420FD046
:1030BC0005F54065A8420BD005F58065A84207D000
:1030CC0005F58065A84203D005F50065A84213D12B
:1030DC00556923F0800343EA8513956823F0400378
:1030EC0043EA8513956921F4806141EA8501D5692C
:1030FC0021F4006141EAC501D268416084618263B8
:10310C00B4E7036A156823F480730362036A4168A9
:10311C00C46924F4803424F073042C43156923F41B
:10312C00007343EA0523556823F4807343EA0523AF
:10313C00504DA84213D005F50065A8420FD005F5F7
:10314C004065A8420BD005F58065A84207D005F56F
:10315C008065A84203D005F50065A84213D15569D6
:10316C0023F4006343EA8523956823F4806343EAE0
:10317C008523956921F4805141EA0511D56921F423
:10318C00005141EA4511D2684160C461C2636DE7E8
:10319C00036A146823F480330362036A416D21F4DB
:1031AC00803121F070010C43116923F4003343EAA0
:1031BC000143516823F4803343EA01432D4988428B
:1031CC0013D001F5006188420FD001F540618842AF
:1031DC000BD001F58061884207D001F580618842EF
:1031EC0003D001F50061884206D14168956921F44C
:1031FC00803141EA052141604465D268816D826568
:10320C0034E7036A146823F480130362036A416D84
:10321C0021F0807121F4E04141EA0424116923F486
:10322C00001343EA0153516823F4801343EA01531A
:10323C001049884213D001F5006188420FD001F586
:10324C00406188420BD001F58061884207D001F5BE
:10325C008061884203D001F50061884206D1416843
:10326C00956921F4802141EA85214160D268446549
:10327C00C265FBE6002C01408A680B7B13434A684D
:10328C0023F4806313430A6823F40063134323F489
:10329C008052CB8913430A6923F4005313434A6ABF
:1032AC0023F440431343144A904210B506D0134CF8
:1032BC00A04203D004F5E054A04219D14C6923F488
:1032CC007023904243EA040306D00C4A904203D088
:1032DC0002F5E05290420BD10A6A23F470031343B7
:1032EC008A6923F080731343CA6923F00073134374
:1032FC004364002010BD00BF002C0140003401408D
:10330C0038B50446006810F001000D4601D00120CC
:10331C0038BDEA686B68216813432A691343AA69AC
:10332C001343254A0A40134323606368AA6823F4B5
:10333C00405313436360A3686A6923F440731343D7
:10334C00A3601E4B9C4219D1FFF7DCFC0028DED099
:10335C002A68002ADBD0A969B1F5004F4FEA520365
:10336C0024D103EB40004FF6F073B0FBF2F00340B6
:10337C00C0F342001843E0600020C9E7104B9C42A8
:10338C0001D11020E0E70F4B9C4201D11220DBE76A
:10339C000D4B9C4204D14FF44010FFF71FFDD5E7B5
:1033AC000A4B9C42B3D14FF44000F6E71844B0FBF3
:1033BC00F2F080B2DFE700BFF369FFEF00380140A5
:1033CC000044004000480040004C004000500040C9
:1033DC0000234FF43F42A0F84430A0F84020184698
:1033EC007047B0F8403023F47C535B045B0CA0F8BE
:1033FC0040300020704784B010B503AC84E80E0058
:10340C00BDE810400123A0F840300023A0F8403064
:10341C0004B0A0F84430A0F85030184670470000B3
:10342C00F0B50C7830F824200346C87822F4EC422E
:10343C0022F07002032803D8DFE800F0444B464822
:10344C00012048F280052A4323F824200F78934C5E
:10345C003EB233F8262022403A432A4323F8262052
:10346C000D7B0A78002D40F08380CD884F786D0855
:10347C0008266D0016FB023277B3B3F85060324465
:10348C00A2F800540D7833F82520570608D533F8E8
:10349C002520144044F4004444F0C00423F8254093
:1034AC00CA780C78012A33F824107D4A02EA01020A
:1034BC0018BF82F0200242F4004242F0800223F84E
:1034CC002420F0BD42F400720020BAE742F4C0623E
:1034DC00FAE742F48062F7E7B3F850402244A2F8CE
:1034EC0004540A78B3F8504016FB02320E69A4B2A9
:1034FC0002F2064256BB155B25F4F8452D042D0C43
:10350C001553155B45F4004515530C7833F82420FE
:10351C0052040BD533F8242022F0F0021205120DC0
:10352C0042F4404242F0800223F82420097833F818
:10353C00212022F4804222F0700282F4405242F4A4
:10354C00004242F0800223F82120BAE73E2E06D832
:10355C007508F60748BF0135AD02ADB2D4E777095F
:10356C00F506504D08BF07F1FF3745EA8725F4E70C
:10357C0012B233F82250254045F4014545F0800540
:10358C0023F822500D78B3F850700E89082212FBE4
:10359C00053505F58065BFB276087600EE530D78DB
:1035AC00B3F8506012FB05324D8902F20442B6B2F8
:1035BC006D086D0095530A784D7812B2B5BB33F88F
:1035CC0022506F0408D533F822502C4044F4404468
:1035DC0044F0800423F822400C7833F8242056065B
:1035EC000BD533F8242022F0F0021205120D42F410
:1035FC00004242F0C00223F824200D7833F8252035
:10360C0022F4804222F0700248F2800482F440528C
:10361C00224323F82520097833F8212022F4E042B4
:10362C0022F04002144323F821404AE733F8225099
:10363C006D0408D533F822502C4044F4404444F037
:10364C00800423F822400C7833F8242052060BD542
:10365C0033F8242022F0F0021205120D42F400423D
:10366C0042F0C00223F82420CA780C78012A33F8DF
:10367C0024500B4A02EA050218BF82F0200242F4E1
:10368C00004242F0800223F82420097833F82120EC
:10369C0022F0F0029204920C51E700BF8F8FFFFFD3
:1036AC00BF8FFFFF0080FFFF10B50C7B4A780B78B3
:1036BC00BCBBF2B130F8232052060BD530F82320D6
:1036CC0022F0F0021205120D42F4004242F0C00248
:1036DC0020F823200A7830F8223023F0C0031B0591
:1036EC001B0D43F4004343F0800320F822300020EC
:1036FC0010BD30F8232054040BD530F8232022F0D1
:10370C00F0021205120D42F4404242F0800220F801
:10371C0023200A7830F8223023F0F0039B049B0C12
:10372C00DFE7002A44D130F8232052040BD530F8BF
:10373C00232022F0F0021205120D42F4404242F016
:10374C00800220F823200A7830F822305C060BD552
:10375C0030F8223023F0F0031B051B0D43F400431B
:10376C0043F0C00320F822300A7830F8223023F0DE
:10377C00F0031B051B0D43F4004343F0C00320F87A
:10378C0022300C7830F8243023F4804323F070037B
:10379C0048F28002134320F82430097830F82130A5
:1037AC0023F4E04323F040031A4320F821209EE742
:1037BC0030F8232052040BD530F8232022F0F002ED
:1037CC001205120D42F4404242F0800220F82320F0
:1037DC000A7830F822305B060BD530F8223023F013
:1037EC00F0031B051B0D43F4004343F0C00320F80A
:1037FC0022300A7830F8223023F0F0031B051B0D21
:10380C0043F4404343F0800320F822300C7830F826
:10381C00243023F4E04323F0400348F280021343A6
:10382C0020F82430097830F8213023F4804323F039
:10383C007003B9E74B780A787BB130F8223023F467
:10384C00E04323F0400383F0100343F4004343F0C0
:10385C00800320F822300020704730F8223023F407
:10386C00804323F0700383F48053EEE70B7B23BB80
:10387C004B780A781BB330F822305B060BD530F846
:10388C00223023F0F0031B051B0D43F4004343F0DF
:10389C00C00320F82230CB78012B0ED00A7830F8F8
:1038AC00223023F4E04323F0400383F0200343F45D
:1038BC00004343F0800320F822300020704730F89A
:1038CC0022305B040BD530F8223023F0F0031B05BB
:1038DC001B0D43F4404343F0800320F822300A7858
:1038EC0030F8223023F4804323F0700383F44053E8
:1038FC00DDE711B98023A0F84C3000207047002080
:10390C007047B0F84400704702F5806201330244FE
:10391C005B0801EB4303521A994200D170470888A7
:10392C0050520231F8E70000F8B50C464978277B75
:10393C000129054640F08C812269A669616996428D
:10394C0028BF1646F7B9B6B23346E288FFF7DCFF5C
:10395C00B5F85010227805F202430B4403EBC20376
:10396C001E80227835F8223023F4E04323F0400304
:10397C0083F0300343F4004343F0800325F82230F6
:10398C000020F8BDE3782778022B40F02A81236AC7
:10399C009A4230F8272022F4F8724FEA02524FEA8A
:1039AC00125280F00C8142F4014242F0800220F865
:1039BC00272020789B1B236203B235F8232012F0BA
:1039CC00400FB3B262787ED0002A4DD1B5F850705A
:1039DC0005F206423A4402EBC002002E32D11088A6
:1039EC0020F4F8400004000C1080108840F40040D3
:1039FC00108062892846FFF787FF226A2369616974
:103A0C0060789A428CBF921B0023314486BF22629D
:103A1C0032462362616193B2002848D1B5F85070E8
:103A2C00267805F20240384400EBC6003ABB028807
:103A3C0022F4F8421204120C0280028842F4004272
:103A4C00028025E03E2E06D87008F70748BF0130EB
:103A5C00800280B2CCE77709F0069B4808BF07F1DB
:103A6C00FF3740EA8720F4E7012AC2D1B5F850703D
:103A7C0005F206423A4402EBC0021380B9E73E2A33
:103A8C000BD85608D70748BF0136B602B6B2068027
:103A9C0022892846FFF738FF63E75609D2068A4A7F
:103AAC0008BF06F1FF3642EA862292B2C8E7012827
:103ABC00EED1B5F85060207805F20242324402EBA8
:103ACC00C0021380E4E7002A4DD1B5F8507005F21E
:103ADC0002423A4402EBC002002E32D1108820F48C
:103AEC00F8400004000C1080108840F40040108056
:103AFC0022892846FFF708FF226A236961696078EA
:103B0C009A428CBF921B0023314486BF22623246FC
:103B1C002362616193B2002845D1B5F850702678C4
:103B2C0005F20640384400EBC6003ABB028822F48A
:103B3C00F8421204120C0280028842F40042028005
:103B4C0025E03E2E06D87008F70748BF01308002EA
:103B5C0080B2CCE77709F0065B4808BF07F1FF3766
:103B6C0040EA8720F4E7012AC2D1B5F8507005F27B
:103B7C0002423A4402EBC0021380B9E73E2A08D84D
:103B8C005608D20748BF0136B602B6B20680628923
:103B9C007FE75609D7064C4A08BF06F1FF3642EAC2
:103BAC00862292B2CBE70128F1D1B5F8506020788B
:103BBC0005F20642324402EBC0021380E7E742F4FE
:103BCC00004242F0800220F82720B0F8507026788E
:103BDC0000F202423A4402EBC6029BB213802289E5
:103BEC0058E730F82720B0F85000B3B256064BBF58
:103BFC0005F2064205F20242121812184BBF22F8C7
:103C0C00373022F83730628922892846FFF77CFE4C
:103C1C00637822786BB912B235F8223023F0F003B6
:103C2C001B051B0D43F4004343F0C00325F8223061
:103C3C0097E6012B7FF495AE12B235F8223023F0C3
:103C4C00F0031B051B0D43F4404343F08003EDE7E9
:103C5C00002F3BD1A3692269B0F850002178934220
:103C6C0086BF9B1AA3611A4605F20643034498BF0C
:103C7C00A76103EBC10352B91A8822F4F84212046B
:103C8C00120C1A801A8842F400421A8008E03E2A6C
:103C9C0010D85108D00748BF0131890289B2198068
:103CAC00227835F8223023F4804323F0700383F418
:103CBC0040535FE65109D206034A08BF01F1FF31B8
:103CCC0042EA812292B2E0E70080FFFFE378022B08
:103CDC0076D1A1B9B0F85010227800F202430B440F
:103CEC00216903EBC20300293BD11A8822F4F84264
:103CFC001204120C1A801A8842F400421A8062785C
:103D0C002378002A51D1B5F8501005F206420A4426
:103D1C00216902EBC303002935D11A8822F4F84239
:103D2C001204120C1A801A8842F400421A80E369B9
:103D3C00002BB5D0227835F8223044F240010B40EC
:103D4C008B4201D0002BABD135F8223023F0F0039D
:103D5C001B051B0D43F4004343F0C00325F8223030
:103D6C009EE73E2906D84A08CF0748BF0132920287
:103D7C0092B2C3E74809CE06464A08BF00F1FF30AD
:103D8C0042EA8022F4E73E2906D84A08C90748BF10
:103D9C000132920292B2C9E74809CA063D4A08BFED
:103DAC0000F1FF3042EA8022F4E7012ABFD1B5F8D6
:103DBC00501005F206420A4402EBC303228AB5E70F
:103DCC00012B65D1A26923699A4295BF0023D21AAF
:103DDC00A361A26198BF134691B9B0F85000217845
:103DEC0005F20242024402EBC10203BB118821F42A
:103DFC00F8410904090C1180118841F4004111802B
:103E0C0061782278002938D1B5F8500005F20641C6
:103E1C00014401EBC202E3B9138823F4F8431B04F9
:103E2C001B0C1380138843F40043138038E73E2B9C
:103E3C0006D85908DF0748BF0131890289B2DEE78D
:103E4C005809DE06134908BF00F1FF3041EA802112
:103E5C00F4E73E2B07D85908D80748BF013189022F
:103E6C0089B211801CE75909DB060A4B08BF01F126
:103E7C00FF3143EA81239BB2D7E701297FF410AFCE
:103E8C00B5F8500005F20641014401EBC202F2E71D
:103E9C00012076E50080FFFF02F58062F0B510444A
:103EAC005E080D463246471A7C19023532B9DB07DB
:103EBC0044BF30F8163001F81630F0BD2488A4B297
:103ECC0005F8024C240A05F8014C013AECE7000015
:103EDC004FF47A73B0FBF3F0034B002201385860B7
:103EEC009A6005221A60704710E000E0014B1860E0
:103EFC00704700BF00000020D0F8BC3210B56BB189
:103F0C00D0F8B84294F80002FF2807D09B6894F8C8
:103F1C00012221469847FF2384F80032002010BD6F
:103F2C004323038000487047440000204323038050
:103F3C0000487047880000204323038000487047E6
:103F4C00D80000200A23038000487047CC000020D2
:103F5C0038B50546D0F8B84200F05AFFD5F8B8325B
:103F6C00C4F80C024BB1D5F8BC32D4F80402DB68AF
:103F7C0004F503719847002038BD0220FCE7F8B522
:103F8C00D0F8B862D6B1142303FB0103DD698DB1FF
:103F9C00D0F8C042282707FB0142926BB5FBF2F424
:103FAC0002FB145434B9DC612246234600F014FFA2
:103FBC002046F8BD0020C6F81402FAE70220F8E704
:103FCC002DE9F7430A78D0F8B8724FF0000812F0D8
:103FDC00600405460E468DF80580ADF8068028D0A5
:103FEC00202C45D1CC884B78E4B1120611D5D0F8F1
:103FFC00BC223946D2F8089018462246C847F288A7
:10400C003946284600F045FC4446204603B0BDE83E
:10401C00F08387F8003287F801422246394600F0D7
:10402C004DFCF1E7D0F8BC22184695682246A8470B
:10403C00EBE74F780A2F0DD00B2F15D0C7B990F89E
:10404C009C32032B14D102220DF1060100F021FC4D
:10405C003C46DAE790F89C32032B09D101220DF192
:10406C00050100F016FCD0E790F89C32032BCCD065
:10407C003146284600F0E6FB0224C6E738B5044674
:10408C000025812100F05CFE0121E562204600F054
:10409C0057FEC4F86C518221204600F051FED4F832
:1040AC00B83225644BB1D4F8BC325B689847D4F86D
:1040BC00B80200F0B5FEC4F8B852002038BD037C3D
:1040CC002DE9F0410446CBBB4FF400730222812151
:1040DC00012500F025FEE5624FF40073294602220B
:1040EC00204600F01DFEC4F86C51082303228221E7
:1040FC002046012500F014FE25644FF4077000F0F3
:10410C008BFE0646C4F8B80250B3D4F8BC321B6818
:10411C00984794F810800027C6F81472C6F81872E5
:10412C00B8F1000F13D14FF40073D6F804222946CE
:10413C00204600F05FFE4046BDE8F081402302229D
:10414C008121012500F0ECFDE5624023C6E7402308
:10415C00D6F804222946204600F04CFE3846EBE700
:10416C002846E9E719B1C0F8BC12002070470220BC
:10417C007047D0F8B8320020C3F80812C3F81022E8
:10418C007047D0F8B8320020C3F804127047D0F84A
:10419C00B82210B582B1D2F81442012374B9C2F816
:1041AC001432D2F810320363D2F808229BB2812168
:1041BC0000F012FE204610BD0220FCE71846FAE77C
:1041CC00D0F8B82210B562B1047CD2F8042234B90C
:1041DC004FF40073012100F00DFE002010BD4023B0
:1041EC00F8E70220FAE708B580B1D0F8B43213B181
:1041FC000023C0F8B43209B1C0F8B012012380F822
:10420C009C32027000F03CFD002008BD0220FCE74F
:10421C0019B1C0F8B412002070470220704708B5DD
:10422C0000F070FD002008BD08B5D0F8B4320BB911
:10423C00022008BD1B6898470028FAD0F8E708B59B
:10424C00D0F8B4325B689847002008BD38B50446F6
:10425C0000F52A75284600F0E1FA012394F8A8121B
:10426C00C4F89432B4F8AE32C4F8983201F01F039B
:10427C00012B0ED007D3022B10D001F08001204669
:10428C0000F06CFD03E02946204600F0F7F8002012
:10429C0038BD2946204600F015FAF8E72946204695
:1042AC0000F035FAF3E770B50546164649BBD0F871
:1042BC009432032B1ED1D0F86031D0F86421934294
:1042CC000BD99B1A9A42C0F860318CBF9AB292B249
:1042DC00314600F002FB002070BDD0F8B4321B69EF
:1042EC0023B190F89C22032A00D19847284600F06D
:1042FC00FCFAF0E7052BEED1C5F8941200F02EFD78
:10430C00E9E7D0F8B4329B692BB190F89C22032AD0
:10431C0001D19847DFE70220DEE770B5134604466B
:10432C000E46002948D1D0F89422022A3DD1D0E97A
:10433C000852954214D9AA1A0262194692B200F098
:10434C00B5FA33461A461946204600F053FD94F848
:10435C00A032012B4FF0000001D184F8A00270BDF7
:10436C00C369B3FBF2F502FB153565B99A420AD85D
:10437C00D0F89822934206D22A4600F097FAC4F855
:10438C0098522B46DEE7D4F8B432DB682BB194F8A4
:10439C009C22032A01D1204698478021204600F018
:1043AC00DDFC204600F0ACFAD1E732F00403CED1AC
:1043BC00802100F0D3FCCAE7D0F8B4325B6933B18A
:1043CC0090F89C22032A02D198470020C7E70220CC
:1043DC00C5E770B50022044611460125402640234E
:1043EC0000F09EFC33468021C4F85851C4F8646137
:1043FC000022204600F094FCD4F8B832A5610021CC
:10440C00666284F89C52C4F894126160C4F8A412D9
:10441C0023B1D4F8B43220465B689847002070BDB5
:10442C0001740020704790F89C3280F89D32042370
:10443C0080F89C320020704790F89C32042B04BF0B
:10444C0090F89D3280F89C320020704708B590F8A7
:10445C009C22032A04D1D0F8B432DB6903B198470B
:10446C00002008BD10B58021044600F077FC2046E2
:10447C000021BDE8104000F071BC000037B50B788E
:10448C0003F06003202B04460D4612D0402B10D0B5
:10449C00002B5BD14B78092B58D8DFE813F0E900DF
:1044AC0005015700FE005700840013005700D2008E
:1044BC00A000D4F8B43229469B68204698470020C7
:1044CC0003B030BD0023ADF806304B881A0A013A10
:1044DC00062A3BD8DFE802F004202D3A3A525C0061
:1044EC00D0F8B0321B68207C0DF106019847BDF85E
:1044FC00062052B1EB8843B19A4228BF1A460146B6
:10450C002046ADF8062000F0C4F9EB88002BD6D17C
:10451C00204600F0EAF9D2E7027CD0F8B43232B986
:10452C009B6A0DF10600984702234370DFE7DB6AB4
:10453C00F7E7DBB2052B09D8DFE803F0030C101406
:10454C00181CD0F8B0325B68002BCCD12046FFF79A
:10455C0089FFB4E7D0F8B0329B68F5E7D0F8B032F9
:10456C00DB68F1E7D0F8B0321B69EDE7D0F8B03278
:10457C005B69E9E7D0F8B0329B69E5E7037C002B77
:10458C00E4D1D0F8B4320DF106005B6B9847AEE77E
:10459C00037C002BDAD1D0F8B4320DF106001B6B82
:1045AC0098470723C1E78B88002BCFD1CB88002BF2
:1045BC00CCD14D887F2DC9D890F89C32032BC5D017
:1045CC00E9B280F89E1200F0F9FB204600F08DF95C
:1045DC001DB1022384F89C3271E70123FAE7897834
:1045EC00374D01292970B1D890F89C32022B08D094
:1045FC00032B14D0FFF736FF29782046FFF71FFE58
:10460C005DE7002984D001210323416080F89C32AE
:10461C002046FFF709FE02287FF47AAF96E731B9FE
:10462C00022380F89C324160FFF709FE70E7416875
:10463C0001293FF46DAFC9B2FFF701FE2978616023
:10464C00E6E7CA88012A81D190F89C32002B3FF40E
:10465C007DAF022B04D9032B7FF478AF011D03E04F
:10466C000146002341F8083F204600F012F926E7E6
:10467C0090F89C32013B022B3FF668AFCB88022BA3
:10468C007FF464AF0123C360D0F8A4320BB10323D1
:10469C00C360022204F10C01E6E74B88012B7FF486
:1046AC000EAFC4F8A43233E790F89C32013B022BD6
:1046BC003FF64CAF4B88012B7FF401AF0023F0E7A2
:1046CC00A003002038B50B7803F06003202B0446C0
:1046DC000D4602D0402B00D0ABB994F89C32013B74
:1046EC00022B10D82B79012B0DD8D4F8B4322946D3
:1046FC009B6820469847EB881BB910B9204600F000
:10470C00F4F8002038BD2046FFF7ACFEF9E738B5C9
:10471C000A7802F06002202A04460B4614D0402A84
:10472C0012D06AB95A788D88012AE9B220D036D3D2
:10473C00032A05D190F89C22022A27D0032A0BD0F9
:10474C002046FFF78FFE05E0D4F8B4221946926894
:10475C0020469047002038BD5A882AB94A0603D013
:10476C00DB880BB900F0FAFA204600F0BEF8F1E74E
:10477C0090F89C22022A09D0032AE1D15B88002BF5
:10478C00E8D14D06F0D000F0F7FAEDE74B06D7D0A4
:10479C0000F0E4FA8021204600F0E0FADAE790F825
:1047AC009C32022B18D0032BCAD101F00F02142318
:1047BC0015F0800F03FB02021DD09269002ABFD0B6
:1047CC0001F07F0505FB0335054411F07F031DD176
:1047DC002B60022229460AE04A06B1D12B064CBFB7
:1047EC0000F1140100F5AA7100230B60022220468F
:1047FC0000F04FF8AEE7D2F85821002AA0D001F013
:10480C007F0503FB050505F5AA75DEE7204600F0DC
:10481C00C1FA08B10123DBE72860DAE70B780370F3
:10482C004B784370CA788B7803EB022343804A7928
:10483C000B7903EB02238380CA798B7903EB022378
:10484C00C380704710B58021044600F087FA2046DB
:10485C000021BDE8104000F081BA30B588B10546A2
:10486C002B1A15F8014BDBB2002CF9D101335B008C
:10487C0013800B7003234B700138022310F8015F77
:10488C0005B930BD5A1CD2B2CD540233DBB28C54B4
:10489C00F4E710B513460222C0F89422C0E907339E
:1048AC000A46002100F098FA002010BD08B5134606
:1048BC000A46002100F090FA002008BD10B51346FE
:1048CC000322C0F89422C0F85C310A46C0F860316B
:1048DC00002100F08FFA002010BD08B513460A46DF
:1048EC00002100F087FA002008BD08B50423C0F8A9
:1048FC00943200231A46194600F06EFA002008BDC7
:10490C0008B50523C0F8943200231A46194600F066
:10491C0071FA002008BD000008B500220E490F48AE
:10492C00FFF761FC08B1FDF71BF90D490B48FFF7C8
:10493C006FFC08B1FDF714F90A490848FFF712FC9F
:10494C0008B1FDF70DF90548FFF769FC18B1BDE892
:10495C000840FDF705B908BD2C01002030090020E6
:10496C000C0000201C010020002070470020704724
:10497C002DE9F743344C94F89C32032B054661D156
:10498C0000285FD00E68002E5CD029462046FFF729
:10499C00F8FB0028F9D12C4C2046FFF711FC00281D
:1049AC00FAD12A4C94F894311BB1002003B0BDE825
:1049BC00F08394F8C930002BF7D1254FDFF89480A1
:1049CC00DFF894902E44B542EFD094F8CA20531CD3
:1049DC00DBB284F8CA302978A154C62B28464FF094
:1049EC0000024FF0010188BF84F8CA2084F893219B
:1049FC0084F8C81003780A2B0D44E4D194F8CA301B
:104A0C008B42E0D9234413F8023C0D2BDBD184F804
:104A1C00C91002A9386841F8042D06F0D4FE01280B
:104A2C0004D040F23B11484607F0C5FE019B002B19
:104A3C00C9D04FF08053C8F80030BFF34F8FBFF38D
:104A4C006F8FC0E70220B1E73009002068230020F7
:104A5C00A8F6002004ED00E0CFE7000810B5064CE6
:104A6C00064900222046FFF784FB05492046FFF744
:104A7C0088FB002010BD00BF30090020C00C0020B6
:104A8C00F80B0020044BD3F8B832D3F814020030E2
:104A9C0018BF0120704700BF3009002010B5094C29
:104AAC00D4F8B832D3F814320A4643B9014620463A
:104ABC00FFF75FFB2046BDE81040FFF768BB012005
:104ACC0010BD00BF3009002012230B800048704736
:104ADC004801002004230B80004870475C01002033
:104AEC00002370B51E46050FECB2092D94BF30346F
:104AFC00373401F8134001EB430401336670DCB228
:104B0C00A2424FEA0010EED870BD00001A2310B577
:104B1C000B80094B186808331B68C0180AD0074B68
:104B2C0007491C680822FFF7DBFF042205492046D1
:104B3C00FFF7D6FF044810BDACF7FF1FB0F7FF1FFF
:104B4C0062010020720100206001002010B5044CAD
:104B5C0004480A462146FFF780FE204610BD00BFE0
:104B6C00C40C002008E8000810B5044C04480A46A0
:104B7C002146FFF772FE204610BD00BFC40C00207A
:104B8C001BE8000810B5044C04480A462146FFF700
:104B9C0064FE204610BD00BFC40C0020EFE70008E7
:104BAC0010B5044C04480A462146FFF756FE204631
:104BBC0010BD00BFC40C0020FAE7000807B50E4B6F
:104BCC0002689A4215D103F5DA330721DA6942F407
:104BDC000002DA61DB6903F4000301930022142064
:104BEC00019BFDF785F8142003B05DF804EBFDF78D
:104BFC00B3B803B05DF804FB005C004000F52C7109
:104C0C00D0F8E802FFF722BB282303FB0103D0F8FE
:104C1C00E802D3F87C21FFF746BB282303FB0103F2
:104C2C00D0F8E802DA6BFFF778BBD0F8E802FFF7B0
:104C3C000DBC8368022B10B5044601D0FCF790FF25
:104C4C00D4F8E8020121FFF7EBFBD4F8E802BDE849
:104C5C001040FFF7BEBB000010B50446D0F8E802C8
:104C6C00FFF7E1FBA36923B1024A136943F0060382
:104C7C00136110BD00ED00E0D0F8E802FFF7DCBBDB
:104C8C0010B51E4A04461E480823C0E9002302231F
:104C9C00C0F8E84283600361C4F8C0020023C0E995
:104CAC0006330362FDF77CF808B1FCF759FF0022CC
:104CBC0011461823D4F8C002FDF7EBFD582300224F
:104CCC008021D4F8C002FDF7E4FDC023002281212D
:104CDC00D4F8C002FDF7DDFD4FF4887300220121EA
:104CEC00D4F8C002FDF7D5FD4FF480730022822169
:104CFC00D4F8C002FDF7CDFD002010BD005C0040D3
:104D0C00C40E002008B5D0F8C002FDF7A2F80328A5
:104D1C0096BF024B0220185C08BD00BF31E80008AA
:104D2C0010B51C46D0F8C00213462246FDF7B6FC5F
:104D3C00032896BF014B0220185C10BD31E8000817
:104D4C0008B5D0F8C002FDF7DBFC032896BF024B78
:104D5C000220185C08BD00BF31E8000808B5D0F887
:104D6C00C002FDF734FD032896BF024B0220185CED
:104D7C0008BD00BF31E8000808B5D0F8C002FDF747
:104D8C0056FD032896BF024B0220185C08BD00BFDD
:104D9C0031E8000811F0800FD0F8C0024FF0280263
:104DAC001DBF01F07F0303FB0221091802FB010167
:104DBC0014BF887891F86A017047000008B5D0F8E4
:104DCC00C002FDF75FF8032896BF024B0220185C67
:104DDC0008BD00BF31E8000808B5D0F8C002FDF7E7
:104DEC00D8FC032896BF024B0220185C08BD00BFFC
:104DFC0031E8000808B5D0F8C002FDF7AAFC03287A
:104E0C0096BF024B0220185C08BD00BF31E80008B9
:104E1C00D0F8C002FDF7B5BC00487047A4030020D1
:104E2C007047704708B50A4C237863B1094D0A4C9A
:104E3C004AF6AA260A202E6007F06EF8002007F02A
:104E4C0085F92060F6E7022007F066F8ECE700BF72
:104E5C00C4050020003000407C01002008B5164C31
:104E6C0023782BB3154C164D26464FF0FF31206896
:104E7C0006F008FD012803D08921284607F09BFC89
:104E8C00104803F0CDF800231A461946306806F096
:104E9C00D3FB012803D08D21284607F08CFC05207C
:104EAC0007F03AF8002007F051F9074B1860DCE7DF
:104EBC00022007F031F8D3E7C4050020A4F6002047
:104ECC0066E80008184800208001002008B51A4C3C
:104EDC0023786BB3194C1A4D26464FF0FF312868D6
:104EEC0006F0D0FC012803D0A121164807F063FC82
:104EFC004FF0FF31206806F0C5FC012803D0A22139
:104F0C00104807F058FC104803F008FB00231A4621
:104F1C001946306806F090FB012803D0A6210948F9
:104F2C0007F049FC002007F011F9084B1860D4E792
:104F3C00022006F0F1FFCBE7C4050020A4F6002008
:104F4C00F4F6002066E800081848002084010020D0
:104F5C00F8B52D4803F0C0FF2C4800F023FA2C487C
:104F6C0000F060FB2B4802F0DFF82A48012102F028
:104F7C00EBFC294804F026FC002000F043FE013035
:104F8C003CD0264B264C274E214D012200201A7076
:104F9C0007F0DCF837462060234B4FF0FF311868E0
:104FAC0006F070FC012803D0D621204807F003FC42
:104FBC004FF0FF31306806F065FC012803D0D72193
:104FCC001A4807F0F8FB284600F09CFB012800D19A
:104FDC0000BF00231A461946386885F8943185F8C5
:104FEC00C93006F029FB012803D0E3210F4807F054
:104FFC00E2FB002007F0AAF82060CDE742F2107324
:10500C0000BF013BFCD1B7E7C0F50020E044002015
:10501C00682300201848002000250020C40500202B
:10502C0088010020A4F60020A8F6002066E80008FD
:10503C0008B5124C2378E3B1114D124E28684FF08D
:10504C00FF3106F01FFC012803D0F5210E4807F0B4
:10505C00B2FB0E4C94F82033002BEFD0204600F01E
:10506C0029FA322006F058FF002007F06FF8306064
:10507C00F0E7022006F050FFDCE700BFC40500207B
:10508C0010F600208C01002066E80008E0440020A7
:10509C00F0B585B072B65A4E5A4BF2685A4D5B4F0A
:1050AC0022F4E0621204120C13430024F360584BF8
:1050BC00AC601868FEF70CFFF02386F823302B68E1
:1050CC00032643F002032B60224621460096514BE7
:1050DC00514D012006F068FA2246386021460096B0
:1050EC004E4B012006F060FA224628604C4B00968D
:1050FC002146012006F058FA4A4C4B492060012009
:10510C0006F04CFB494B3A6818602E4625461C4667
:10511C001AB95421464807F04EFB33681BB9552188
:10512C00434807F048FB2B681BB95621404807F051
:10513C0042FB23681BB957213D4807F03CFB3D4B14
:10514C0002933D4B019303230093802200233B49A0
:10515C003B4806F0B5FC18B95A21354807F02BFB33
:10516C00384B0293384B0193022300938022002387
:10517C003649374806F0A4FC18B95B212C4807F0D7
:10518C001AFB344B0293344B01930523009380227A
:10519C0000233249324806F093FC18B95C212448AC
:1051AC0007F009FB2F4B02932F4B01930123009324
:1051BC004FF4007200232D492D4806F081FC18B9DC
:1051CC005D211B4807F0F7FA2A4B02932A4B0193F7
:1051DC0004230093802200232849294806F070FC00
:1051EC0018B95E21124807F0E6FA62B606F048FDDF
:1051FC000F48642105B0BDE8F04007F0DCBA00BFF1
:10520C0000ED00E00003FA0510E000E0A8F6002035
:10521C000000002014F60020F4F60020ACF600206C
:10522C005CF6002010F60020F8F60020A4F6002012
:10523C0066E80008081600206821002035E8000800
:10524C00314E0008102100200812002038E8000818
:10525C00694E0008601800206016002043E8000822
:10526C00D94E0008B81800201019002053E8000887
:10527C005D4F0008B01100200814002061E8000800
:10528C003D50000808B506F071FF012801D007F069
:10529C004BF903494AF6E8428B5801338B5008BD51
:1052AC001848002007F0C6B807F00CB92DE9FF41EB
:1052BC0090F832737A1E53424FF000050446534166
:1052CC0080F8333304F5C8762946A0F830534FF4F0
:1052DC00C87207F0EBFC29464FF4C872304607F051
:1052EC00E5FC012F0CBFC8231E234FF480774FF42D
:1052FC008068009303952346CDE901780222234967
:10530C00234803F0BFFD94F8333320492148AB42C6
:10531C0014BFC8231E23CDE90037CDE902853346DF
:10532C00012203F0AFFD1C4B1C48DA6842F001026D
:10533C00DA609D635D6294F833234168AA4214BF1E
:10534C000C242C4621F4406141EA0421416042685E
:10535C0022F00C0222434260DA6842F48052DA6096
:10536C00DA6842F40062DA600D4A4FF48051516001
:10537C001A6A0A431A621A6A3A431A621A6842F0A3
:10538C0001021A6004B0BDE8F08100BF00040240C5
:10539C00403401403834014000340140183401409D
:1053AC0000E100E0134B0022C0E9CA230023124A9B
:1053BC0080F82033A0F83233D268C2F30222C2F153
:1053CC000701101D042928BF0421062898BF1A467E
:1053DC004FF0FF3303FA01F36FEA030388BF033A7C
:1053EC0003F0040393401B01044ADBB282F82C3314
:1053FC00704700BF0000F0BF00ED00E000E100E0EE
:10540C0070B590F8203380F8322380F820136BB9F4
:10541C0001291ED1104D0024C0E9CA450F481A4677
:10542C0019460068BDE8704006F006B981B9012B39
:10543C0003D10A4B186806F025FA094A136823F0C1
:10544C000103136052F8143C23F0010342F8143C9E
:10545C0070BD0029F1D0FBE70000F0BF10F6002072
:10546C001C04024009B1FFF721BF0F4B1A6822F050
:10547C0001021A601A6A22F480521A621A6A22F421
:10548C0080721A62094A4FF48051C2F88410BFF33B
:10549C004F8FBFF36F8FDA6822F48052DA60DA68CC
:1054AC0022F40062DA6070470034014000E100E051
:1054BC00000000002DE9F8430446FFF7F7FE002535
:1054CC00DFF8D4802F46D8F80460B7F57A7FB6B2EF
:1054DC0003DD0A2006F020FD0A35B5F5FA6F07F159
:1054EC00010701DC002EEED100212046FFF7BAFFA8
:1054FC0094F83353002D0CBF1E23C8239B1B012B88
:10550C0038D904EB4302B4F890015E1EB2F88E3128
:10551C0032F8022C1B1A9BB220882BB3C0F57F40AB
:10552C00FF30013B10449BB2C3EB03431844FAF722
:10553C00E3FF804630468946FAF7DEFF02460B460B
:10554C0040464946FBF77CF902460B4610A1D1E9CF
:10555C000001FBF775F9002255B10A4BFBF746F831
:10556C00C4E9CA01BDE8F8839042FBD2101ADBE70C
:10557C00054BF3E7054B0022C4E9CA23F2E700BF51
:10558C00AFF30080000020400000F03F0000F0BFAF
:10559C0000000000882AA1411C040240074A13693C
:1055AC00DB0707D50649B1F8303301339BB2A1F8BC
:1055BC00303393636FF00103136170470034014083
:1055CC00E0440020012070472DE9F041DFF85080C5
:1055DC00054600F18406002456F8043BEBB1012C7F
:1055EC0019D1D5F8383193F89431002B14BF04231A
:1055FC00052305EB8303D3F88470384607F0D3F802
:10560C00394602462846013405F0F4F8042CE3D15F
:10561C000120BDE8F0812346EBE701224146F1E78A
:10562C008EEC000800B5002380F8933180F894319B
:10563C0080F8953180F8C83080F8C93080F8CA30CD
:10564C00224B234A18608BB001230793214B0693FE
:10565C00C8230593204B0493204B0393204B0293B8
:10566C00204B0193204B089000932049204B21485C
:10567C0005F01EF8204BDA69910225D5DA69520241
:10568C0022D51A6842F020021A601C4BDB68C3F367
:10569C0002231A1D062AC3F107028CBFD91E002152
:1056AC00042A28BF04224FF0FF339340DB4303F05E
:1056BC0006038B40124A1B01DBB282F826334023CF
:1056CC0053600BB05DF804FB00BFD4E7F40B002073
:1056DC009001002044F900207CF800208EEC00089A
:1056EC00E2E80008E8E8000802E9000814E900080C
:1056FC00B0F0000840F700200044004000ED00E04E
:10570C0000E100E070B590F89451012D044611D1E0
:10571C0000F1CB0690F895211148314605F09CFB21
:10572C00C8220021304607F0C1FA002384F89531D5
:10573C00284670BD90F8C950012D0ED190F8CA20A2
:10574C000146074805F088FBC8220021204607F0D7
:10575C00ADFA002384F8CA30EAE70025E8E700BF79
:10576C0040F70020F8B590F89331012B0E46144603
:10577C000ED10B4611499A1BA24201DB2046F8BD03
:10578C0013F8012BC8690006FCD592B20A85F2E722
:10579C0090F8C830012B0FD1094D97B239463046DD
:1057AC00FFF77CF9012801D1013DF7D1FFF76AF928
:1057BC000028E3D000BFF9E70024DFE700440040F5
:1057CC0040420F00D0F83801FFF7CCBF30B50CB217
:1057DC009BB00546204604F0F9F9224603460649DB
:1057EC0001A807F06BFA01A90246D5F83801FFF7BA
:1057FC00B9FF00201BB030BDC8E8000810B5012966
:10580C009CB0044613460CD1094903A807F056FA7C
:10581C00024603A9D4F83801FFF7A4FF01201CB0FD
:10582C0010BD009203A80A46024907F047FAEFE7B9
:10583C009CE80008AFE8000808B509220349D0F835
:10584C003801FFF78FFF012008BD00BFD8E8000822
:10585C0030B589B005460023084601AC1146C25C40
:10586C001A550133082BFAD12C230A220DF10D0005
:10587C008DF80C3006F0F5FF08AB03440D2203F84D
:10588C00132C0A2203F8122C214600F10B02284695
:10589C00FFF768FF09B030BD264B37B5DA699206C1
:1058AC0046D59A8C244B93F8941192B200293FD18F
:1058BC0093F8C940002C3BD193F89501411CC9B217
:1058CC00C629184483F89511D2B288BF83F8954144
:1058DC00184C80F8CB20012100204FF400650A2AD7
:1058EC0083F8931183F8C800256221D193F8952190
:1058FC008A421DD91A4492F8C9200D2A18D183F86E
:10590C00941102A90D4B41F8040D186805F05BFFCA
:10591C00012803D030210A4806F04DFF019B3BB112
:10592C00084B4FF080521A60BFF34F8FBFF36F8F4D
:10593C0003B030BD0044004068230020A8F60020CE
:10594C0047EB000804ED00E013B5002301AA6946FB
:10595C00044605F00DF90021174801F0D3FC012194
:10596C00154801F0F1FF0121134801F0CBFC01991E
:10597C0001291BD1009B1B78532B0ED100220E4802
:10598C0001F07CFB00210C4801F0DEFF0B492046A6
:10599C0004F046FF012002B010BD4C2B06D10A4684
:1059AC000548002101F06AFB0221ECE701221146B7
:1059BC00014801F063FBE9E718480020EBEB000815
:1059CC0073B5012301AA6946054605F0D1F880B3E9
:1059DC00019C052C10D118492246009807F0B3F908
:1059EC0010BB0021154801F0AFFF1549284604F003
:1059FC0017FF012002B070BD042C02D122461149C0
:105A0C00EBE7022C10D1009E0F492246304607F0DE
:105A1C009AF908B90121E5E722460C49304607F00E
:105A2C0092F908B92146DDE76FF0DF01284604F052
:105A3C00C9F84FF0FF30DDE705ED000818480020ED
:105A4C00EBEB00080BED000810ED000813ED00085F
:105A5C0008B5074A4AF6F443D35C23B9054904F068
:105A6C00DFFE012008BD012B0CBF03490349F6E7FB
:105A7C001848002005ED000810ED000813ED000893
:105A8C0030B5B7B001240023ADF85830ADF85C3018
:105A9C00CDE91134194B039405460A20CDE90F309A
:105AAC00174B08944FF47A7CCDE90D3C4FF4FA6E09
:105ABC0002226423CDE90B3ECDE9092317AB0793F2
:105ACC0016AB069303210423CDE91321CDE904334E
:105ADC000C4A0D4B0D49CDE901324AF6E0330093E7
